:100000007EEF02F00000000000EF00F000000000B2
:0A0010000000000000000000F3D71C
:10001C000B820BAE18EF00F00368026801680068F1
:08002C000A360232FF0E120039
:0E003400026A016A006A086A036A000E12007E
:100042000B840BAE2CEF00F0010E036E026A016A04
:0A005200006A0A360232FF0E1200A7
:08005C000AAE029E000E120024
:100064000B800BAE3EEF00F0026A0AAEFF0E026E8A
:0C007400016E006E0A360232FF0E120010
:100080000CB082EF00F00CA228EF01F00E6A000E17
:10009000026499EF00F0F00E0214D8A464EF00F0AF
:1000A000023A01380F0B02260138F00B016E0038BE
:1000B0000F0B01260038F00B006E08380F0B0026DE
:1000C0000838F00B086E0E84D89002BE7DEF00F069
:1000D00008360036013602360E2A02BE7DEF00F0E9
:1000E00008360036013602360E2A02BE7DEF00F0D9
:1000F00008360036013602360E2A0E5003641EEF13
:1001000001F0035E0BBC08AE23EF01F0D880800E37
:1001100008640030000E002201220222D8A023EF42
:1001200001F0023201320032034A28EF01F023EFDE
:1001300001F001C002F000C001F008C000F0086A40
:10014000000E0E860264D0EF00F0F00E0214D8A468
:10015000B8EF00F0023A01380F0B02260138F00B1D
:10016000016E00380F0B01260038F00B006E0E8474
:10017000D89002BE7DEF00F00036013602360E2A1E
:1001800002BE7DEF00F00036013602360E2A02BEB6
:100190007DEF00F00036013602360E2A7DEF00F0CA
:1001A00001C002F000C001F0006A000E0E960E8839
:1001B0000264FDEF00F0F00E0214D8A4E8EF00F0A6
:1001C000023A01380F0B02260138F00B016E0E8443
:1001D000D89002BE7DEF00F0013602360E2A02BE34
:1001E0007DEF00F0013602360E2A02BE7DEF00F0F0
:1001F000013602360E2A7DEF00F001C002F0016ADE
:10020000000E0E8602642DEF01F0F00E0214D8A449
:100210000CEF01F0023A0E84D89002BE7DEF00F0A0
:1002200002360E2A02BE7DEF00F002360E2A02BE12
:100230007DEF00F002360E2A7DEF00F0010E0C6E0D
:1002400000DF30EF01F0020E0C6E08DF30EF01F03E
:10025000040E0C6EE3DE30EF01F0080E0C6EEADEE9
:0202600012008A
:100262000B6A0C6A0A6A0350D8B47BEF01F0028E63
:100272008E0E035E03BE43EF01F0D8B443EF01F0EC
:100282007FEF01F0036C080E035CD8A05AEF01F077
:10029200036E013602C001F0026A080E035CD8A0A8
:1002A2005AEF01F00136016A0350D8A4D89064EFE6
:1002B20001F00350D8B464EF01F0D8900232013259
:1002C200032E5EEF01F00BBC01A071EF01F0D8A08C
:1002D20071EF01F0012AD8B4022A02BE8EEF01F0BA
:1002E2000AAE93EF01F0021E011E012AD8B4022ABF
:1002F20093EF01F0026A016A93EF01F00B800BAEFB
:1003020097EF01F0026A0AAE97EF01F0FF0E026E5C
:10031200016E0A36023297EF01F0010E0C6EA1DE79
:1003220099EF01F0000E0C6E99EF01F0FF0E0C6ECA
:0A0332000150006E0250016E12002F
:10033C0000C008F00B6A0C6A9E0E036E0A6A026A11
:0C034C00016A006A020E0C6E95DE1200C1
:10035800086A096A000E0762036431EF02F002506E
:1003680006180A6E075003267E0ED8A0C2EF01F0C9
:10037800035ED8B035EF02F0C6EF01F0035ED8A0F7
:1003880039EF02F0028E068E02C00EF001C00BF0AB
:1003980000C00DF000500402F4CF0CF0015005022B
:1003A800F4CF00F0F3CF08F00402F3500C26F45019
:1003B8000822000E00220D500502F3500C26F450BE
:1003C8000822000E002202500402F3500826F450BE
:1003D800002202500502016A000E0122F350002695
:1003E800F45001220D500602F3500826F450002262
:1003F800026A000E012202220B500602F350002668
:10040800F4500122000E02220E500602F35001267B
:10041800F450022202BE19EF02F008360036013607
:1004280002360306D8B439EF02F02CEF02F0D88078
:10043800800E08640030000E002201220222D8A09B
:100448002CEF02F0023201320032034A35EF02F09B
:100458000AAE029E000E3BEF02F0010EE7DD3BEF15
:1004680002F0020ED7DD3BEF02F0040EE6DD1200CB
:10047800460ED56ED76AD66A8A80270E0D6E0D2E67
:10048800FED7000000008A9081B201D0FDD7D58E3A
:1004980081A204D0FA0ED65C01E2FAD7D6CF00F0DA
:1004A80049DF450E046E470E056E6A0E066E7F0E16
:0804B800076E4EDFD2DE1200D8
:1004C00017C000F018C001F0010E175E000E185A98
:1004D000005001100AE0100E0C6E940E0D6E0D2EE1
:0C04E000FED70C2EFCD70000EBD712005A
:1004EC000900F5CFE6FF0006FBE10106F9E1120079
:1004FC00926A020E936E956A896A8A6A8C6A0F0EEA
:10050C00C16EB4DF00C015F001C016F0000E026E13
:10051C000150025C02E10050C80804E28C908C92FD
:10052C008C7413D0000E006E1650005C02E1155056
:10053C00640804E28C908C728C8407D089B802D049
:10054C008C8001D08C908C828C84000E165C02E125
:10055C00320E155C02E28C8606D08C7615C017F034
:0A056C0016C018F0A7DFCDD7FFD7A7
:020000040030CA
:0E000000040E1F1EFF8381FF0FC00FE00F4094
:00000001FF
