:1000000011EF01F00000000000EF00F00000000020
:0A0010000000000000000000F3D71C
:10001C00560E0C6EB50E0D6E0D2EFED70C2EFCD79B
:06002C00000000001200BC
:0E003200030E0D6E0D2EFED700000000120012
:0E004000C70E0D6E0D2EFED700000000120040
:10004E002BBE02D0839A01D0838A2BBC02D0839818
:10005E0001D083882BBA02D0839601D083862BB829
:10006E0002D0839401D0838423B002D0838001D048
:10007E0083908382D7DF83922BB602D0839A01D0EE
:10008E00838A2BB402D0839801D083882BB202D0FE
:10009E00839601D083862BB002D0839401D08384C3
:1000AE0023B002D0838001D083908382BBDF839202
:0C00BE0023A002D0ACDF01D0BCDF120098
:0C00CA0023902AC02BF0BEDF2380120020
:1000D60095929590959495969598959A83928390F6
:1000E600839A83988396839496DF95DF94DF83863D
:1000F600838483829BDF83928EDF838297DF839262
:100106008ADF838293DF839286DF839483828EDF06
:10011600839281DF83828ADF83928396838A8382B6
:1001260085DF839278DF839A838483827FDF83925D
:10013600839483827BDF83926EDF838277DF839271
:100146008384838273DF839266DF839483826EDF88
:100156008392838A838883868384838267DF8392FC
:060166005ADF23801200A5
:10016C000900F5CFE6FF0006FBE10106F9E11200FC
:10017C0025C000F026C001F0010E255E000E265AA7
:10018C00005001100AE0100E0C6E940E0D6E0D2E28
:0C019C00FED70C2EFCD70000EBD71200A1
:1001A8000FD0800E256E19D0C00E256E16D0940E75
:1001B800256E13D0D40E256E10D0800E256E0DD06E
:1001C8002550010AEEE02550020AEEE02550030A08
:1001D800EEE02550040AEEE0F0D72604006E255024
:1001E800002600C025F000C02BF02DDF2390296ADF
:1001F80029502724E96E000E2820EA6EEE520BE003
:1002080029502724E96E000E2820EA6EEECF2AF046
:0A02180058DF292AEDD723801200D9
:10022200480E156E650E166E6C0E176E6C0E186EFD
:100232006F0E196E200E1A6E740E1B6E720E1C6EED
:10024200750E1D6E640E1E6E790E1F6E6F0E206E81
:10025200210E216E226A926A956A896A8C6A3ADF55
:100262008C8C010E256E010E266E150E276E000E69
:10027200286E99DF0C0E2B6EE9DE246A030E245CD5
:100282000AE21C0E2B6EE2DEF40E256E010E266EC5
:1002920074DF242AF3D7246A030E245C0AE2180EC0
:1002A2002B6ED4DEF40E256E010E266E66DF242A36
:0602B200F3D7E3D7FFD7EC
:020000040030CA
:0E000000040E1F1EFF8381FF0FC00FE00F4094
:00000001FF
