:100000001DEF00F00000000000EF00F00000000015
:0A0010000000000000000000F3D71C
:10001C00040E0B6E0C0E0C6E330E0D6E0D2EFED7E9
:0E002C000C2EFCD70B2EFAD70000000012009D
:10003A00926A030E936E956A896A8A6A8C6AFF0EBF
:10004A00C16E010E8C6E156A070E155C09E28CCF23
:10005A0000F00036009000C08CFFDBDF152AF4D7D1
:10006A00156A070E155C09E28CCF00F00032009E7B
:0E007A0000C08CFFCEDF152AF4D7E5D7FFD7E4
:020000040030CA
:0E000000040E1F1EFF8381FF0FC00FE00F4094
:00000001FF
