:040000006CEF00F0B1
:10000800F2A406D0F294480ED76EE50ED66EF29A98
:020018001100D5
:0E001A00570E0D6E0D2EFED7000000001200D6
:100028001EC000F01FC001F0010E1E5E000E1F5A18
:10003800005001100AE0100E0C6E940E0D6E0D2E7D
:0C004800FED70C2EFCD70000EBD71200F6
:10005400870ED56E480ED76EE50ED66EF28EF28AF6
:02006400120088
:100066000900F5CFE6FF0006FBE10106F9E1120003
:10007600FF0E186EFF0E196EFF0E1A6EFF0E1B6E28
:10008600C26A151C006E0050C116070EC012C08E43
:04009600C280120012
:10009A00C26A151C006E0050C116070EC012C08E2F
:1000AA001EC000F000360090003600900050C212C8
:1000BA00C280AEDFC282C2A201D0FDD7C4CF01F096
:0E00CA00006AC3500012000E0112C290120014
:1000D800A9EC00F0010E926E896AC9DF1E6AD9DFA9
:1000E80000C01CF001C01DF0000E015C02E1640EAE
:1000F800005C0AE2320E1E6E000E1F6E91DF010ECA
:10010800166E000E176EA2DFF2AA14D01E6AC1DFA7
:1001180000C01CF001C01DF0000E015C02E1640E7D
:10012800005C07E2164A172A320E1E6E000E1F6E7A
:1001380077DFEAD7000E171802E1020E1618D8B4B6
:0A0148008978166A176ACAD7FFD734
:1001520010EE15F0010E006E010E016E060EF66E27
:0E016200000EF76E000EF86E33EC00F0120087
:0100060030C9
:020000040030CA
:0E000000040E1F1EFF8381FF0FC00FE00F4094
:00000001FF
