:1000000032EF04F00000000000EF00F000000000FC
:0A0010000000000000000000F3D71C
:0E001C00026A016A006A086A036A000E120096
:10002A000B840BAE20EF00F0010E036E026A016A28
:0A003A00006A0A360232FF0E1200BF
:080044000AAE029E000E12003C
:0E004C00C70E0D6E0D2EFED700000000120034
:10005A000B820BAE37EF00F0036802680168006894
:08006A000A360232FF0E1200FB
:0E007200030E0D6E0D2EFED7000000001200D2
:10008000560E0C6EB50E0D6E0D2EFED70C2EFCD737
:0600900000000000120058
:1000960048BE02D0839A01D0838A48BC02D0839896
:1000A60001D0838848BA02D0839601D0838648B8A7
:1000B60002D0839401D0838436B002D0838001D0ED
:1000C60083908382D3DF839248B602D0839A01D08D
:1000D600838A48B402D0839801D0838848B202D07C
:1000E600839601D0838648B002D0839401D083845E
:1000F60036B002D0838001D083908382B7DF8392AB
:0C01060036A002D0BADF01D09EDF12004C
:100112000CB0CBEF00F00CA271EF01F00E6A000EF2
:100122000264E2EF00F0F00E0214D8A4ADEF00F08A
:10013200023A01380F0B02260138F00B016E00382B
:100142000F0B01260038F00B006E08380F0B00264B
:100152000838F00B086E0E84D89002BEC6EF00F08D
:1001620008360036013602360E2A02BEC6EF00F00D
:1001720008360036013602360E2A02BEC6EF00F0FD
:1001820008360036013602360E2A0E50036467EF37
:1001920001F0035E0BBC08AE6CEF01F0D880800E5C
:1001A20008640030000E002201220222D8A06CEF67
:1001B20001F0023201320032034A71EF01F06CEFBA
:1001C20001F001C002F000C001F008C000F0086AAE
:1001D200000E0E86026419EF01F0F00E0214D8A48C
:1001E20001EF01F0023A01380F0B02260138F00B41
:1001F200016E00380F0B01260038F00B006E0E84E2
:10020200D89002BEC6EF00F00036013602360E2A42
:1002120002BEC6EF00F00036013602360E2A02BEDA
:10022200C6EF00F00036013602360E2AC6EF00F0A5
:1002320001C002F000C001F0006A000E0E960E88A6
:10024200026446EF01F0F00E0214D8A431EF01F07F
:10025200023A01380F0B02260138F00B016E0E84B0
:10026200D89002BEC6EF00F0013602360E2A02BE58
:10027200C6EF00F0013602360E2A02BEC6EF00F0CB
:10028200013602360E2AC6EF00F001C002F0016A02
:10029200000E0E86026476EF01F0F00E0214D8A46E
:1002A20055EF01F0023A0E84D89002BEC6EF00F07C
:1002B20002360E2A02BEC6EF00F002360E2A02BE37
:1002C200C6EF00F002360E2AC6EF00F0010E0C6EE9
:1002D200ABDE79EF01F0020E0C6EB3DE79EF01F0C6
:1002E200040E0C6EB9DE79EF01F0080E0C6E95DE8D
:0202F2001200F8
:1002F4000B800BAE86EF01F0026A0AAEFF0E026EAF
:0C030400016E006E0A360232FF0E12007D
:10031000086A096A100E0C6E01340836093604505A
:10032000085E0550D8A0053C095ED8B007D004503F
:1003300008260550D8B0053C0926D890003601366D
:060340000C2EEAD71200AA
:1003460000C008F00B6A0C6A9E0E036E0A6A026A07
:0C035600016A006A020E0C6ED9DE120073
:10036200456A050E455C0AE245504324E16E000EE3
:100372004420E26E200EE66E452AF3D74550432410
:10038200E16E000E4420E26EE66A450645504324C3
:10039200466E000E4420476E0A0E046E000E056E75
:1003A20041C000F042C001F0B2DF08C000F009C055
:1003B20001F0300E002646C0E1FF47C0E2FF00C058
:1003C200E6FF0A0E046E000E056E41C000F042C048
:1003D20001F09DDF00C041F001C042F0000E0118A3
:1003E20002E1000E001801E102D04506CFD712004B
:1003F200086A096A000E076203647EEF02F0025087
:1004020006180A6E075003267E0ED8A00FEF02F0E0
:10041200035ED8B082EF02F013EF02F0035ED8A0C1
:1004220086EF02F0028E068E02C00EF001C00BF0C3
:1004320000C00DF000500402F4CF0CF00150050290
:10044200F4CF00F0F3CF08F00402F3500C26F4507E
:100452000822000E00220D500502F3500C26F45023
:100462000822000E002202500402F3500826F45023
:10047200002202500502016A000E0122F3500026FA
:10048200F45001220D500602F3500826F4500022C7
:10049200026A000E012202220B500602F3500026CD
:1004A200F4500122000E02220E500602F3500126E1
:1004B200F450022202BE66EF02F008360036013620
:1004C20002360306D8B486EF02F079EF02F0D88044
:1004D200800E08640030000E002201220222D8A001
:1004E20079EF02F0023201320032034A82EF02F067
:1004F2000AAE029E000E88EF02F0010E8EDD88EF3A
:1005020002F0020EA9DD88EF02F0040E8DDD12006A
:100512000B6A0C6A0A6A0350D8B4D3EF02F0028E57
:100522008E0E035E03BE9BEF02F0D8B49BEF02F087
:10053200D7EF02F0036C080E035CD8A0B2EF02F012
:10054200036E013602C001F0026A080E035CD8A0F5
:10055200B2EF02F00136016A0350D8A4D890BCEF82
:1005620002F00350D8B4BCEF02F0D890023201324C
:10057200032EB6EF02F00BBC01A0C9EF02F0D8A027
:10058200C9EF02F0012AD8B4022A02BEE6EF02F055
:100592000AAEEBEF02F0021E011E012AD8B4022AB3
:1005A200EBEF02F0026A016AEBEF02F00B800BAE96
:1005B200EFEF02F0026A0AAEEFEF02F0FF0E026EF8
:1005C200016E0A360232EFEF02F0010E0C6E91DE7E
:1005D200F1EF02F0000E0C6EF1EF02F0FF0E0C6E66
:0A05E2000150006E0250016E12007D
:0C05EC00369041C048F051DD368012000E
:1005F80095929590959495969598959A83928390CF
:10060800839A83988396839437DD36DD35DD838638
:10061800838483822ADD83922FDD838226DD839281
:100628002BDD838222DD839227DD839483821DDD87
:10063800839222DD838219DD83928396838A838263
:1006480014DD839219DD839A838483820EDD83927D
:10065800839483820ADD83920FDD838206DD839291
:100668008384838202DD839207DD83948382FDDCA9
:100678008392838A8388838683848382F6DC839249
:06068800FBDC36801200CD
:10068E000FD0800E376E19D0C00E376E16D0940E66
:10069E00376E13D0D40E376E10D0800E376E0DD04D
:1006AE003750010AEEE03750020AEEE03750030AE7
:1006BE00EEE03750040AEEE0F0D73804006E375003
:1006CE00002600C037F000C048F0DEDC36903B6AF2
:1006DE003B503924E96E000E3A20EA6EEE520BE0E2
:1006EE003B503924E96E000E3A20EA6EEECF41F00F
:0A06FE0076DF3B2AEDD736801200AC
:100708000900F5CFE6FF0006FBE10106F9E112005A
:10071800460ED56ED76AD66A8A80270E0D6E0D2EC4
:10072800FED7000000008A9081B201D0FDD7D58E97
:1007380081A204D0FA0ED65C01E2FAD7D6CF00F037
:10074800FEDD450E046E470E056E6A0E066E7F0EC0
:08075800076E4BDEDADE120031
:100760003D6A3E6A37C03FF038C040F0800E38180E
:10077000006E800E005C02E1000E375C0BE2010EA1
:100780003D6E000E3E6E375000083F6E38C040F0A0
:10079000000E40563FC041F040C042F039C043F027
:1007A0003AC044F0DEDD060E3B6E000E3C6E000EDD
:1007B000006E3C50005C02E13B50000819E23B50E7
:1007C0003924E16E3C503A20E26E010E3B5C006E33
:1007D000000E3C58016E00503924E96E01503A2059
:1007E000EA6EEECFE6FF010E3B5E000E3C5ADFD70D
:1007F00039C0E1FF3AC0E2FF200EE66E3D503E10E8
:100800001AE03B6A3C6A3B503924E96E3C503A207E
:10081000EA6EEE50200A03E13B4A3C2AF4D7010E6F
:100820003B5E000E3C5A3B503924E16E3C503A206E
:08083000E26E2D0EE66E1200CF
:1008380037C000F038C001F0010E375E000E385A9C
:10084800005001100AE0100E0C6E940E0D6E0D2E65
:0C085800FED70C2EFCD70000EBD71200DE
:1008640085EC04F0926A020E936E956A896A8A6A2C
:100874008C6A0F0EC16EBEDE8C8C010E376E010EBB
:10088400386E1C0E396E000E3A6EFFDE0C0E486E8A
:1008940000DC40DF00C034F001C035F000C037F0A8
:1008A40001C038F02D0E396E000E3A6E57DF355008
:1008B400010802E134502C080AE2010E376E080EDA
:1008C400386E150E396E000E3A6EDFDE09D0010E59
:1008D400376E080E386E2D0E396E000E3A6ED5DE68
:0E08E400640E376E000E386EA5DFD3D7FFD737
:10090A0010EE15F0180E006E010E016EF20EF66E64
:0E091A00080EF76E000EF86E84EC03F012006B
:0708F2002020204D415800B9
:1008F9004D65736166653A202020202020206D6DAA
:0109090000ED
:020000040030CA
:0E000000040E1F1EFF8381FF0FC00FE00F4094
:00000001FF
