:1000000024EF00F00000000000EF00F0000000000E
:0A0010000000000000000000F3D71C
:10001C0017C000F018C001F0010E175E000E185A40
:10002C00005001100AE0100E0C6E940E0D6E0D2E89
:0C003C00FED70C2EFCD70000EBD7120002
:10004800926A030E936E956A896A8A6A8C6AFF0EB1
:10005800C16E010E8C6E166A030E165C24E2156AD8
:10006800070E155C0DE28CCF00F00036009000C042
:100078008CFF4B0E176E000E186ECCDF152AF0D7CA
:10008800156A070E155C0DE28CCF00F00032009E59
:1000980000C08CFF4B0E176E000E186EBBDF152AC2
:1000A800F0D7162AD9D7166A030E165C28E2156A05
:1000B800050E155C0FE20F0E8C6E320E176E000ED9
:1000C800186EA8DF8C6A320E176E000E186EA2DF4B
:1000D800152AEED7156A050E155C0FE2F00E8C6E28
:1000E800320E176E000E186E95DF8C6A320E176E80
:1000F800000E186E8FDF152AEED7162AD5D7A9D786
:02010800FFD71F
:020000040030CA
:0E000000040E1F1EFF8381FF0FC00FE00F4094
:00000001FF
