:100000000EEF00F00000000000EF00F00000000024
:0A0010000000000000000000F3D71C
:10001C00926A956A896A8C6A89788C80040E0B6E58
:10002C000C0E0C6E330E0D6E0D2EFED70C2EFCD757
:10003C000B2EFAD7000000008C90040E0B6E0C0EE9
:10004C000C6E330E0D6E0D2EFED70C2EFCD70B2E18
:10005C00FAD7000000008C80040E0B6E0C0E0C6E98
:10006C00330E0D6E0D2EFED70C2EFCD70B2EFAD7A1
:10007C00000000008C90040E0B6E0C0E0C6E330EF8
:10008C000D6E0D2EFED70C2EFCD70B2EFAD70000C2
:10009C0000008C80040E0B6E0C0E0C6E330E0D6E6D
:1000AC000D2EFED70C2EFCD70B2EFAD7000000001D
:1000BC008C90040E0B6E0C0E0C6E330E0D6E0D2E02
:1000CC00FED70C2EFCD70B2EFAD7000000008C802C
:1000DC00040E0B6E0C0E0C6E330E0D6E0D2EFED729
:1000EC000C2EFCD70B2EFAD7000000008C90040EBF
:1000FC000B6E0C0E0C6E330E0D6E0D2EFED70C2EE1
:10010C00FCD70B2EFAD7000000008C80040E0B6E6F
:10011C000C0E0C6E330E0D6E0D2EFED70C2EFCD766
:10012C000B2EFAD7000000008C90040E0B6E0C0EF8
:10013C000C6E330E0D6E0D2EFED70C2EFCD70B2E27
:10014C00FAD7000000008C86040E0B6E0C0E0C6EA1
:10015C00330E0D6E0D2EFED70C2EFCD70B2EFAD7B0
:10016C00000000008C96040E0B6E0C0E0C6E330E01
:10017C000D6E0D2EFED70C2EFCD70B2EFAD70000D1
:10018C0000008C86040E0B6E0C0E0C6E330E0D6E76
:10019C000D2EFED70C2EFCD70B2EFAD7000000002C
:1001AC008C96040E0B6E0C0E0C6E330E0D6E0D2E0B
:1001BC00FED70C2EFCD70B2EFAD7000000008C8635
:1001CC00040E0B6E0C0E0C6E330E0D6E0D2EFED738
:1001DC000C2EFCD70B2EFAD7000000008C96040EC8
:1001EC000B6E0C0E0C6E330E0D6E0D2EFED70C2EF0
:1001FC00FCD70B2EFAD7000000008C86040E0B6E79
:10020C000C0E0C6E330E0D6E0D2EFED70C2EFCD775
:10021C000B2EFAD7000000008C96040E0B6E0C0E01
:10022C000C6E330E0D6E0D2EFED70C2EFCD70B2E36
:10023C00FAD7000000008C86040E0B6E0C0E0C6EB0
:10024C00330E0D6E0D2EFED70C2EFCD70B2EFAD7BF
:10025C00000000008C96040E0B6E0C0E0C6E330E10
:10026C000D6E0D2EFED70C2EFCD70B2EFAD70000E0
:06027C000000D2D6FFD7FE
:020000040030CA
:0E000000040E1F1EFF8381FF0FC00FE00F4094
:00000001FF
