:10000000DCEF01F00000000000EF00F00000000055
:0A0010000000000000000000F3D71C
:08001C000AAE029E000E120064
:100024000B840BAE1DEF00F0010E036E026A016A31
:0A003400006A0A360232FF0E1200C5
:0E003E00026A016A006A086A036A000E120074
:10004C000B800BAE32EF00F0026A0AAEFF0E026EAE
:0C005C00016E006E0A360232FF0E120028
:100068000C6A0E6A0250D8A44DEF00F001C002F0ED
:1000780000C001F0006A0E860250D8A44DEF00F0CF
:1000880001C002F0016A0E960E880250D8B45FEFE4
:1000980000F00E50035ED8A4D8A064EF00F0D8900A
:1000A80002BE69EF00F0003601360236032E54EF27
:1000B80000F064EF00F0010E0C6EBDDF6CEF00F095
:1000C800020E0C6EABDF6CEF00F0040E0C6EA2DFBC
:0200D800120014
:0E00DA00570E0D6E0D2EFED700000000120016
:1000E8000B820BAE7EEF00F00368026801680068BF
:0800F8000A360232FF0E12006D
:100100000B6A0C6A0A6A0350D8B4CAEF00F0028E78
:100110008E0E035E03BE92EF00F0D8B492EF00F0B3
:10012000CEEF00F0036C080E035CD8A0A9EF00F03E
:10013000036E013602C001F0026A080E035CD8A00B
:10014000A9EF00F00136016A0350D8A4D890B3EFAC
:1001500000F00350D8B4B3EF00F0D890023201326F
:10016000032EADEF00F00BBC01A0C0EF00F0D8A053
:10017000C0EF00F0012AD8B4022A02BEDDEF00F081
:100180000AAEE2EF00F0021E011E012AD8B4022AD4
:10019000E2EF00F0026A016AE2EF00F00B800BAEC2
:1001A000E6EF00F0026A0AAEE6EF00F0FF0E026E24
:1001B000016E0A360232E6EF00F0010E0C6E46DFE9
:1001C000E8EF00F0000E0C6EE8EF00F0FF0E0C6E92
:0A01D0000150006E0250016E120093
:1001DA00C26A151C006E0050C116070EC012C08EEE
:1001EA0018C000F000360090003600900050C2128D
:1001FA00C2806EDFC282C2A201D0FDD7C4CF01F095
:0E020A00006AC3500012000E0112C2901200D2
:100218000050086E0150006E016A026A036A0B6A98
:100228000C6A960E036E0A6A00C001F008C000F05E
:08023800086A026A15DF1200DA
:10024000086A096A000E07620364A5EF01F0025014
:1002500006180A6E075003267E0ED8A036EF01F06E
:10026000035ED8B0A9EF01F03AEF01F0035ED8A029
:10027000ADEF01F0028E068E02C00EF001C00BF051
:1002800000C00DF000500402F4CF0CF00150050244
:10029000F4CF00F0F3CF08F00402F3500C26F45032
:1002A0000822000E00220D500502F3500C26F450D7
:1002B0000822000E002202500402F3500826F450D7
:1002C000002202500502016A000E0122F3500026AE
:1002D000F45001220D500602F3500826F45000227B
:1002E000026A000E012202220B500602F350002681
:1002F000F4500122000E02220E500602F350012695
:10030000F450022202BE8DEF01F0083600360136AD
:1003100002360306D8B4ADEF01F0A0EF01F0D880AB
:10032000800E08640030000E002201220222D8A0B4
:10033000A0EF01F0023201320032034AA9EF01F0CE
:100340000AAE029E000EAFEF01F0010E78DEAFEFB5
:1003500001F0020EC9DEAFEF01F0040E63DE120001
:10036000186A3BDF59DF000E046E000E056E7A0E30
:0C037000066E7D0E076E64DFC3DE120017
:10037C000900F5CFE6FF0006FBE10106F9E11200EA
:10038C0016C000F017C001F0010E165E000E175AD1
:10039C00005001100AE0100E0C6E940E0D6E0D2E16
:0C03AC00FED70C2EFCD70000EBD712008F
:1003B800F3EC01F0010E926E896ACEDF015001085C
:1003C80002E100502C0802E2898801D08998FA0ECF
:0C03D800166E000E176ED6DFF0D7FFD7B0
:1003E60010EE15F0010E006E010E016EE40EF66EB3
:0E03F600030EF76E000EF86EBEEC01F0120062
:0103E40030E8
:020000040030CA
:0E000000040E1F1EFF8381FF0FC00FE00F4094
:00000001FF
