:0400000099EF00F084
:1000080000C015F0F2A411D0F294880ED76E780EC5
:10001800D66E1A52D8A48B841652D8A48B82175243
:10002800D8A48C801B6A186A196A9EA01DD09E905D
:10003800FF0ECF6E880ECE6E1A501B5CD8B08B9414
:100048001650185CD8B08B921750195CD8B08C90A9
:10005800FF0E1B5CD8A01B2AFF0E185CD8A0182A1C
:0E006800FF0E195CD8A0192A15C000F0110077
:100076001FC000F020C001F0010E1F5E000E205AC6
:10008600005001100AE0100E0C6E940E0D6E0D2E2F
:0C009600FED70C2EFCD70000EBD71200A8
:1000A200010ECD6E9E90FF0ECF6E880ECE6E9D809D
:0600B200C00EF26E120008
:1000B8001A501C1807E116501D1804E117501E1895
:1000C80001E121D01C501A5C02E21A2A04D01A500D
:1000D8001C5CD8A01A061D50165C02E2162A04D031
:1000E80016501D5CD8A016061E50175C02E2172A8F
:1000F80004D017501E5CD8A017060A0E1F6E000EFB
:08010800206EB5DFD5D712000F
:100110000900F5CFE6FF0006FBE10106F9E1120058
:10012000880ED56E880ED76E780ED66EF28EF28A55
:020130001200BB
:10013200166A176A186A196A1A6A1B6A926A946AB4
:10014200956A896A8B6A8C6AEADFAADFFF0E1C6EE7
:100152001D6A1E6AB0DF1C6AFF0E1D6E1E6AABDFCF
:100162001C6A1D6AFF0E1E6EA6DFFF0E1C6E7F0E3E
:100172001D6E1E6AA0DFFF0E1C6E1D6A960E1E6E9D
:100182009ADFFF0E1C6EFF0E1D6EFF0E1E6E93DFBA
:04019200DDD7FFD7DF
:020000040030CA
:0E000000040E1F1EFF8381FF0FC00FE00F4094
:00000001FF
