:10000000BDEF03F00000000000EF00F00000000072
:0A0010000000000000000000F3D71C
:10001C000B840BAE19EF00F0010E036E026A016A3D
:0A002C00006A0A360232FF0E1200CD
:10003600560E0C6EB50E0D6E0D2EFED70C2EFCD781
:06004600000000001200A2
:08004C000AAE029E000E120034
:0E005400C70E0D6E0D2EFED70000000012002C
:0E006200026A016A006A086A036A000E120050
:0E007000030E0D6E0D2EFED7000000001200D4
:0E007E00570E0D6E0D2EFED700000000120072
:10008C000C6A0E6A0250D8A45FEF00F001C002F0B7
:10009C0000C001F0006A0E860250D8A45FEF00F099
:1000AC0001C002F0016A0E960E880250D8B471EFAE
:1000BC0000F00E50035ED8A4D8A076EF00F0D890D4
:1000CC0002BE7BEF00F0003601360236032E66EFDF
:1000DC0000F076EF00F0010E0C6EBDDF7EEF00F04D
:1000EC00020E0C6E95DF7EEF00F0040E0C6EA8DF96
:0200FC001200F0
:1000FE00086A096A100E0C6E01340836093604506F
:10010E00085E0550D8A0053C095ED8B007D0045053
:10011E0008260550D8B0053C0926D8900036013681
:06012E000C2EEAD71200BE
:1001340051BE02D0839A01D0838A51BC02D08398E5
:1001440001D0838851BA02D0839601D0838651B8F6
:1001540002D0839401D083843FB002D0838001D045
:100164008390838283DF839251B602D0839A01D035
:10017400838A51B402D0839801D0838851B202D0CB
:10018400839601D0838651B002D0839401D08384B6
:100194003FB002D0838001D08390838267DF839253
:0C01A4003FA002D046DF01D053DF120064
:1001B0000B800BAEE4EF00F0026A0AAEFF0E026E97
:0C01C000016E006E0A360232FF0E1200C3
:1001CC000B820BAEF0EF00F0036802680168006868
:0801DC000A360232FF0E120088
:1001E4004E6A050E4E5C0AE24E504C24E16E000E3F
:1001F4004D20E26E200EE66E4E2AF3D74E504C246C
:10020400E16E000E4D20E26EE66A4E064E504C241E
:100214004F6E000E4D20506E0A0E046E000E056ED9
:100224004AC000F04BC001F068DF08C000F009C00C
:1002340001F0300E00264FC0E1FF50C0E2FF00C0C5
:10024400E6FF0A0E046E000E056E4AC000F04BC0B5
:1002540001F053DF00C04AF001C04BF0000E01185A
:1002640002E1000E001801E102D04E06CFD71200C1
:10027400C26A261C006E0050C116070EC012C08E42
:100284004AC000F000360090003600900050C212C0
:10029400C280F3DEC282C2A201D0FDD7C4CF01F076
:0E02A400006AC3500012000E0112C290120038
:1002B2000B6A0C6A0A6A0350D8B4A3EF01F0028EEB
:1002C2008E0E035E03BE6BEF01F0D8B46BEF01F04C
:1002D200A7EF01F0036C080E035CD8A082EF01F0D7
:1002E200036E013602C001F0026A080E035CD8A058
:1002F20082EF01F00136016A0350D8A4D8908CEF46
:1003020001F00350D8B48CEF01F0D89002320132E0
:10031200032E86EF01F00BBC01A099EF01F0D8A0EB
:1003220099EF01F0012AD8B4022A02BEB6EF01F019
:100332000AAEBBEF01F0021E011E012AD8B4022A46
:10034200BBEF01F0026A016ABBEF01F00B800BAE5A
:10035200BFEF01F0026A0AAEBFEF01F0FF0E026EBC
:10036200016E0A360232BFEF01F0010E0C6E1FDF82
:10037200C1EF01F0000E0C6EC1EF01F0FF0E0C6E2A
:0A0382000150006E0250016E1200DF
:0C038C003F904AC051F0D0DE3F801200CC
:100398000050086E0150006E016A026A036A0B6A17
:1003A8000C6A960E036E0A6A00C001F008C000F0DD
:0803B800086A026A67DE120008
:1003C000086A096A000E0762036465EF02F00250D2
:1003D00006180A6E075003267E0ED8A0F6EF01F02D
:1003E000035ED8B069EF02F0FAEF01F0035ED8A027
:1003F0006DEF02F0028E068E02C00EF001C00BF00F
:1004000000C00DF000500402F4CF0CF001500502C2
:10041000F4CF00F0F3CF08F00402F3500C26F450B0
:100420000822000E00220D500502F3500C26F45055
:100430000822000E002202500402F3500826F45055
:10044000002202500502016A000E0122F35000262C
:10045000F45001220D500602F3500826F4500022F9
:10046000026A000E012202220B500602F3500026FF
:10047000F4500122000E02220E500602F350012613
:10048000F450022202BE4DEF02F00836003601366B
:1004900002360306D8B46DEF02F060EF02F0D880A8
:1004A000800E08640030000E002201220222D8A033
:1004B00060EF02F0023201320032034A69EF02F0CB
:1004C0000AAE029E000E6FEF02F0010ECADD6FEF62
:1004D00002F0020E7BDE6FEF02F0040E9FDD1200D1
:1004E0000FD0800E406E19D0C00E406E16D0940E04
:1004F000406E13D0D40E406E10D0800E406E0DD0E2
:100500004050010AEEE04050020AEEE04050030A7B
:10051000EEE04050040AEEE0F0D74104006E405097
:10052000002600C040F000C051F004DE3F90446A55
:1005300044504224E96E000E4320EA6EEE520BE076
:1005400044504224E96E000E4320EA6EEECF4AF09A
:0A0550001DDF442AEDD73F801200A2
:10055A000900F5CFE6FF0006FBE10106F9E112000A
:10056A0095929590959495969598959A839283905D
:10057A00839A83988396839459DD58DD57DD838661
:10058A008384838270DD839251DD83826CDD839262
:10059A004DDD838268DD839249DD8394838263DD46
:1005AA00839244DD83825FDD83928396838A83828A
:1005BA005ADD83923BDD839A8384838254DD83925E
:1005CA008394838250DD839231DD83824CDD839272
:1005DA008384838248DD839229DD8394838243DD89
:1005EA008392838A83888386838483823CDD839291
:0605FA001DDD3F80120030
:1006000040C000F041C001F0010E405E000E415AB2
:10061000005001100AE0100E0C6E940E0D6E0D2E9F
:0C062000FED70C2EFCD70000EBD7120018
:10062C004A6A22DEB3DE000E046E400E056E1C0E0E
:0C063C00066E810E076EBEDE36DE120078
:10064800466A476A40C048F041C049F0800E4118E8
:10065800006E800E005C02E1000E405C0BE2010EB1
:10066800466E000E476E40500008486E41C049F083
:10067800000E495648C04AF049C04BF042C04CF001
:1006880043C04DF0ABDD060E446E000E456E000E05
:10069800006E4550005C02E14450000819E24450E5
:1006A8004224E16E45504320E26E010E445C006E28
:1006B800000E4558016E00504224E96E0150432057
:1006C800EA6EEECFE6FF010E445E000E455ADFD714
:1006D80042C0E1FF43C0E2FF200EE66E46504710DD
:1006E8001AE0446A456A44504224E96E4550432062
:1006F800EA6EEE50200A03E1444A452AF4D7010E77
:10070800445E000E455A44504224E16E4550432051
:08071800E26E2D0EE66E1200E8
:100720000FD0800E406E19D0C00E406E16D0940EC1
:10073000406E13D0D40E406E10D0800E406E0DD09F
:100740004050010AEEE04050020AEEE04050030A39
:10075000EEE04050040AEEE0F0D74104006E405055
:10076000002600C040F03F8000C051F0E3DC3F9025
:0A07700042C051F0DFDC3F801200B0
:10077A002FEC04F0010E926E956A896A8C6AF0DE9B
:10078A008C8C010E406E010E416E270E426E000ED9
:10079A00436EA1DE020E406E010E416E150E426ED0
:1007AA00000E436E98DE0C0E516EBFDC3ADF00C0BD
:1007BA0040F001C041F0380E426E000E436E3FDF3A
:1007CA00020E406E080E416E38C042F0A4DF020EDF
:1007DA00406E090E416E39C042F09DDF020E406E36
:1007EA000A0E416E3AC042F096DF020E406E0B0EC0
:1007FA00416E3BC042F08FDF020E406E0C0E416E1E
:10080A003CC042F088DF020E406E0D0E416E2E0E85
:10081A00426E81DF020E406E0E0E416E3DC042F006
:10082A007ADFE80E406E030E416EE5DEBFD7FFD7D2
:10085E0010EE15F0230E006E010E016E3A0EF66EBE
:0E086E00080EF76E000EF86EADEC02F01200F0
:10083A0056616C75653A2020202020202020204314
:01084A0000AD
:01084B00307C
:10084C004C4D33352054656D702E53656E736F723D
:01085C00009B
:020000040030CA
:0E000000040E1F1EFF8381FF0FC00FE00F4094
:00000001FF
