:100000003CEF03F00000000000EF00F000000000F3
:0A0010000000000000000000F3D71C
:10001C00086A096A100E0C6E013408360936045051
:10002C00085E0550D8A0053C095ED8B007D0045036
:10003C0008260550D8B0053C0926D8900036013664
:06004C000C2EEAD71200A1
:100052002906290629C001F029060150000803E2F9
:1000620000000000F7D700000000000000000000C0
:0200720012007A
:100074000B6A0A6A096A086A0E6A0334083604506D
:10008400085E0550D8A0053C095E0650D8A0063C81
:100094000A5E0750D8A0073C0B5EE86AD8A0010EA0
:1000A4000E5E0336070E0C6E0334083609360A3624
:1000B4000B360E36045003A012D0085E0550D8A0AB
:1000C400053C095E0650D8A0063C0A5E0750D8A03D
:1000D400073C0B5EE86AD8A0010E0E5E11D008261C
:1000E4000550D8B0053C09260650D8B0063C0A266F
:1000F4000750D8B0073C0B26E86AD8B0010E0E268C
:1001040003360C2ED1D70234083609360A360B369C
:100114000E36045003A012D0085E0550D8A0053C4A
:10012400095E0650D8A0063C0A5E0750D8A0073CDA
:100134000B5EE86AD8A0010E0E5E11D008260550A9
:10014400D8B0053C09260650D8B0063C0A2607500C
:10015400D8B0073C0B26E86AD8B0010E0E2602364A
:10016400070E0C6E0234083609360A360B360E3684
:10017400045002A012D0085E0550D8A0053C095EC8
:100184000650D8A0063C0A5E0750D8A0073C0B5E78
:10019400E86AD8A0010E0E5E11D008260550D8B02A
:1001A400053C09260650D8B0063C0A260750D8B0AC
:1001B400073C0B26E86AD8B0010E0E2602360C2E38
:1001C400D1D70134083609360A360B360E360450B8
:1001D40002A012D0085E0550D8A0053C095E065066
:1001E400D8A0063C0A5E0750D8A0073C0B5EE86A1C
:1001F400D8A0010E0E5E11D008260550D8B0053CDB
:1002040009260650D8B0063C0A260750D8B0073C49
:100214000B26E86AD8B0010E0E260136070E0C6EC6
:100224000134083609360A360B360E36045001A05E
:1002340012D0085E0550D8A0053C095E0650D8A02F
:10024400063C0A5E0750D8A0073C0B5EE86AD8A0BB
:10025400010E0E5E11D008260550D8B0053C0926C3
:100264000650D8B0063C0A260750D8B0073C0B26E7
:10027400E86AD8B0010E0E2601360C2ED1D7003410
:10028400083609360A360B360E36045001A012D051
:10029400085E0550D8A0053C095E0650D8A0063C6F
:1002A4000A5E0750D8A0073C0B5EE86AD8A0010E8E
:1002B4000E5E11D008260550D8B0053C092606501C
:1002C400D8B0063C0A260750D8B0073C0B26E86A8B
:1002D400D8B0010E0E260036070E0C6E0034083618
:1002E40009360A360B360E36045000A012D0085ECA
:1002F4000550D8A0053C095E0650D8A0063C0A5E0D
:100304000750D8A0073C0B5EE86AD8A0010E0E5E29
:1003140011D008260550D8B0053C09260650D8B09F
:10032400063C0A260750D8B0073C0B26E86AD8B02A
:10033400010E0E2600360C2ED1D700B00ED004507C
:1003440008260550D8B0053C09260650D8B0063C0E
:0C0354000A260750D8B0073C0B26120008
:10036000800E006EBB0E016E000E026E036E120058
:10037000220E0C6E086A096A0A6A0B6A0C06D8B467
:100380001FD0D8900B320A320932083203320232BF
:1003900001320032D8A0F2D70C06D8B409D00450EC
:1003A00008260550092206500A2207500B22EAD7D8
:1003B000045008260550092206500A2207500B2235
:0203C000120029
:1003C200CEDFE80E046E030E056E000E066E076E9B
:1003D200CEDF00C025F001C026F002C027F003C026
:1003E20028F01DC004F01EC005F0000E066E076E58
:1003F20040DE00C025F001C026F002C027F003C095
:1004020028F000C005F001C006F002C007F003C0EA
:1004120008F00832073206320532089E08320732E7
:1004220006320532089E05C000F006C001F007C082
:1004320002F008C003F00332023201320032039E9E
:1004420000C021F001C022F08ADF1FC004F020C0EA
:1004520005F0000E066E076E8ADF21C009F022C089
:100462000AF0000E0B6E0C6E030E086E09C004F04B
:100472000AC005F00BC006F00CC007F0085007E0F8
:1004820004360490053606360736FF0FF8D7F1DD3D
:1004920000C025F001C026F002C027F003C028F0FA
:1004A2000A0E046E000E056E21C000F022C001F09B
:1004B200B4DD00C021F001C022F0000E015C02E1B7
:1004C200030E005C01E241D016C0E9FF17C0EAFF4B
:1004D2002850000808E12750000805E126500008CE
:1004E20002E1255000082FE21950EF1222520DE0CE
:1004F200236A246A000E245C02E12250235C05E296
:10050200296AA6DD234A242AF5D721C029F0A0DDD5
:100512001850EF1622520DE0236A246A000E245C62
:1005220002E12250235C05E2296A92DD234A242A51
:10053200F5D721C029F08CDD010E255E000E265A6A
:0C054200275A285AC5D71850EF1612008F
:10054E00100E1D6E030E1E6EFA0E1F6E000E206E26
:04055E0031DF120077
:10056200BA0E1D6E020E1E6EFA0E1F6E000E206E69
:0405720027DF12006D
:10057600700E1D6E030E1E6E320E1F6E000E206E66
:040586001DDF120063
:10058A00930E1D6E020E1E6EFA0E1F6E000E206E68
:04059A0013DF120059
:10059E00260E1D6E050E1E6E320E1F6E000E206E86
:0405AE0009DF12004F
:1005B200160E1D6E040E1E6E320E1F6E000E206E83
:0405C200FFDE120046
:1005C6001AC016F01BC017F01CC001F0010E006E19
:1005D600015004E000360090FF0FFBD700C019F071
:1005E600001E00C018F0120E1A24E96E000E1B2021
:1005F600EA6E0050EF16120EE95E0050EF1612007A
:10060600C1DFACDFA1DFA0DFBDDFA8DF9DDF9CDFA0
:10061600B9DFA4DF99DFB6DFA1DF96DF95DFB2DFB2
:100626009DDF92DF91DF90DF99DF98DFABDF12006D
:10063600090E1A6E1A50000805E29ADFB7DFACDF22
:060646001A06F8D71200AD
:10064C001AC000F01BC001F0010E1A5E000E1B5AFE
:10065C00005001100AE0100E0C6E940E0D6E0D2E53
:0C066C00FED70C2EFCD70000EBD71200CC
:10067800926A010E936E956A896A8A6A8C6AFF0E7D
:10068800C16E830E1A6E0F0E1B6E1C6A98DF700EF9
:100698001D6E030E1E6EE80E1F6E030E206E8DDE9D
:1006A800156A81B042D01AD06CDF31D056DF2FD016
:1006B8004ADF2DD0A4DF2BD05ADF29D076DF27D010
:1006C8006ADF25D0B4DF23D0640E1D6E000E1E6EC7
:1006D800E80E1F6E030E206E70DE19D01550000A4A
:1006E800E3E01550010AE2E01550020AE1E0155076
:1006F800030AE0E01550040ADFE01550050ADEE0C1
:100708001550060ADDE01550070ADCE0DDD7070EB4
:10071800155C02E2152A01D0156A640E1A6E000EE5
:0E0728001B6E90DF81B001D0FDD7BBD7FFD78D
:020000040030CA
:0E000000040E1F1EFF8381FF0FC00FE00F4094
:00000001FF
